:020000040000FA
:100000008312031307309F008501860183163C305D
:10001000850086018312453084000A30A000A501C6
:1000200025088000A50A840AA00B10284F30840000
:100030001730A00010308000840A01308000840A4C
:10004000A00B1A281F308000840AFF308000840A29
:100050000330AA000730AB00AE00AC01AF01AD0128
:10006000B001B201B301B1010130A3008613051440
:100070001D30A200F621533007220000A20B3A28BF
:1000800000004228F6215230072246280830A200FC
:10009000A801E520A20B492800004E28F6210B22DA
:1000A0000000F621432231185D282E08AB003008ED
:1000B000AD000022002204225E2879223730072278
:1000C000A501A101D230A200AD21A20B642800003D
:1000D0006928F62131187028002200220122712897
:1000E0009522B12247300722F6210B220000F6218B
:1000F000432231188C282F08AC0079222B08CD22FE
:10010000AC010730AB002A08CD220739AA00073C12
:1001100003192A10AD018E281C3007222B08AE00CF
:100120002C08AF002D08B000BC221C300722333051
:10013000A200A921A20B992800009E28F621533085
:100140000722062205100322062205142D3007225D
:100150000000053023180430A100051003220622F8
:1001600005142C300722B428A10BAD28000005107F
:100170002A300722BB28051404300722BF28043088
:10018000A10005102A300722C528051404300722D3
:100190000000A10BC128000005100322062205144F
:1001A0002D3007220000043023180330A100051071
:1001B0000322062205142D300722DE28A10BD728A2
:1001C0000000F621533007223828F62104308A0037
:1001D0004508A5000310A50DA50DA50D28082507A8
:1001E0000024BB004608A5000310A50DA50DA50D14
:1001F000280825070024BC004708A5000310A50D0A
:10020000A50DA50D280825070024BD004808A50058
:100210000310A50DA50DA50D280825070024BE0077
:100220004908A5000310A50DA50DA50D2808250753
:100230000024BF004A08A5000310A50DA50DA50DBB
:10024000280825070024C0004B08A5000310A50DB1
:10025000A50DA50D280825070024C1004C08A50000
:100260000310A50DA50DA50D280825070024C20023
:100270004D08A5000310A50DA50DA50D28082507FF
:100280000024C3004E08A5000310A50DA50DA50D63
:10029000280825070024C4003B088600860D860D2B
:1002A000860D860D860D860D860D3C088600860D12
:1002B000860D860D860D860D860D860D3D08860001
:1002C000860D860D860D860D860D860D860D3E08E3
:1002D0008600860D860D860D860D860D860D860D93
:1002E0003F088600860D860D860D860D860D860DCF
:1002F000860D40088600860D860D860D860D860DBE
:10030000860D860D41088600860D860D860D860DAC
:10031000860D860D860D42088600860D860D860D9B
:10032000860D860D860D860D43088600860D860D8A
:10033000860D860D860D860D860D44088600860D79
:10034000860D860D860D860D860D860DA80A022265
:100350000800F621523007220800F6210A30210257
:10036000031DB629A50AA50AA101B7290622A10ADB
:100370005530250784000008A600840A0008A7005D
:10038000A60D860C0522A60D860C0522A60D860C50
:100390000522A60D860C0522A60D860C0522A60DAB
:1003A000860C0522A60D860C0522A60D860C0522BC
:1003B000A70D860C0522A70D860C0522A70D860C1D
:1003C0000522A70D860C0522A70D860C0522A70D78
:1003D000860C0522A70D860C0522A70D860C05228A
:1003E00000008613263007220000080005220510B1
:1003F000053007220000051406300722000008001F
:100400000000000000000000000000000800A00044
:10041000A00B082A080003308A002A08A500031050
:10042000A50DA50DA50D2D08A507A5072508C72312
:10043000B400B600B60EF030B405B605B501B7018C
:10044000250AC723B800BA00BA0EF030B805BA05BD
:10045000B901BB012B08A0000310B40CB50C0310AC
:10046000B60CB70C0310B80CB90C0310BA0CBB0CCB
:10047000A00B2C2A0E30A0002B08A0020022402A3C
:10048000A00B3E2A0800311003102C0D4F3E8400B3
:1004900034080005031D712A840A35080005031D70
:1004A000722A840A36080005031D732A840A370855
:1004B0000005031D742A840A38080005031D752AE7
:1004C000840A39080005031D762A840A3A080005C3
:1004D000031D772A840A3B080005031D782A31147E
:1004E00008000522052205220522052205220522F3
:1004F000080003102C0D4F3E840034088004840A49
:1005000035088004840A36088004840A3708800489
:10051000840A38088004840A39088004840A3A0866
:100520008004840A3B088004080003102C0D4F3E11
:10053000840034098005840A35098005840A360957
:100540008005840A37098005840A38098005840AF1
:1005500039098005840A3A098005840A3B09800527
:100560000800B20A193032020319B92A851EAC0AF2
:10057000BB2AB201AC0A080003303302031DCA2AA9
:10058000B301851DAB0A051DAB03051EAD0A033083
:10059000AD050800B30A03220800A40603012418CD
:1005A0005E3AA418BC3A2419613AA419C23A241A32
:1005B0009D3AA41A233A241B463AA41B8C3AA40061
:0205C000080031
:02078E008207E0
:100790000634603406346034063460340634603421
:1007A0000F340034223422340F3400342234223403
:1007B000033460342334103403346034233410346D
:1007C00006343034133420340634303413342034B7
:1007D0000734403422343034173400346234203447
:1007E0000734103432342034473400342234603437
:1007F0000734203423342034273400342634203482
:1008000082077C34C634CE34D634D634E634C6348B
:100810007C341834383418341834183418341834F4
:100820003C347C34C63406340C34183430346034F0
:10083000FE347C34C63406341C3406340634C634E4
:100840007C340E341E3436346634C634FE340634FA
:100850000634FE34C034C034FC3406340634C634A6
:100860007C347C34C634C034FC34C634C634C6341C
:100870007C34FE34C63406340C341834303430340E
:1008800030347C34C634C6347C34C634C634C634C2
:100890007C347C34C634C6347E3406340634C634E4
:1008A0007C3438346C34C634C634FE34C634C63472
:0208B000C6344C
:02400E00423F2F
:00000001FF
